:020000040801F1
:10000000C8AC0220C101010807650108C702010848
:10001000036501088D090108597D010800000000F1
:10002000000000000000000000000000177601083A
:10003000E70A010800000000130201081976010810
:10004000DB010108DB010108DB010108DB0101081C
:10005000DB010108DB010108DB010108DB0101080C
:10006000DB010108DB010108DB010108DB010108FC
:10007000DB010108DB010108DB010108DB010108EC
:10008000DB010108DB010108DB010108DB010108DC
:10009000DB010108DB010108DB010108DB010108CC
:1000A000DB010108DB010108DB010108DB010108BC
:1000B000DB010108DB0101089D770108DB01010874
:1000C000DB010108DB010108DB010108DB0101089C
:1000D000DB010108F17C0108DB010108DB010108FB
:1000E000E90A0108DB010108DB010108DB01010865
:1000F000DB010108DB010108DB010108DB0101086C
:10010000DB01010895650108DB010108DB0101083D
:10011000DB010108DB010108DB010108DB0101084B
:10012000DB010108DB010108DB010108BD09010851
:10013000DB010108DB010108DB010108DB0101082B
:10014000DB010108DB010108DB010108DB0101081B
:10015000DB010108CD090108DB010108097D010867
:10016000DB010108DB010108DB010108DB010108FB
:10017000DB010108DB010108DB01010800000000D0
:10018000DB010108DB010108DB010108DB010108DB
:10019000DB010108DB010108DB010108DB010108CB
:1001A000DB010108DB01010891090108DFF80CD02F
:1001B00000F084F90048004737050108C8AC022068
:1001C0000648804706480047FEE7FEE7FEE7FEE7F1
:1001D000FEE7FEE7FEE7FEE7FEE7FEE73977010808
:1001E000AD010108EFF3108072B6704780F31088FC
:1001F0007047434A1368012B04D04FF0010313608A
:10020000404A1060404A116040484FF08051016000
:100210007047EFF3108272B63948016851B34FF05E
:10022000000101603748016891B1EFF309811EF0C8
:10023000100F08BF21ED108B21E9F00F4FF00004E3
:100240001EF0100F08BF012441F8044D0068016042
:100250002D490968096808C9B1E8F00F002B18BFDB
:10026000B1EC108B81F309884EF0100E002B18BFF3
:100270002EF0100E82F310884EF0040E70472249C3
:100280000860EFF3148222F0040282F314881D49FF
:100290004FF0000008601A494FF0010008601C4848
:1002A0004FF47F01D0F8002041EA020101601748B5
:1002B0004FF08051016017480068006880F308889B
:1002C00061B662B670471EF0040F0CBFEFF30880F2
:1002D000EFF3098020E9F00F40F804ED40F804ED59
:1002E0001EF0040F0CBF80F3088880F3098800B566
:1002F0001AF014FD5DF804EB4EF0040E7047000098
:100300006C030020640300206803002004ED00E07B
:1003100020ED00E008ED00E02DE9F05F054600204B
:1003200092469B4688460646814640241BE0284666
:1003300041464746224600F0B0F853465A46C01A96
:10034000914110D311461846224600F097F82D1A15
:1003500067EB01084F4622460120002100F08EF88D
:1003600017EB00094E41201EA4F10104DFDC4846D2
:1003700031462A464346BDE8F09F10B540EA0104E5
:100380000346A40703D009E010C9121F10C3042AB2
:10039000FAD203E011F8014B03F8014B521EF9D2D7
:1003A00010BDD2B201E000F8012B491EFBD270470C
:1003B0000022F6E710B513460A4604461946FFF731
:1003C000F0FF204610BD421E12F8013F002BFBD16A
:1003D00011F8013B02F8013B002BF9D1704710B531
:1003E000044604E00B7800F8013B03B1491C521E9F
:1003F000F8D2204610BD421C10F8011B0029FBD189
:10040000801A704710B5002200E0521C835C8C5C9F
:10041000A34201D1002BF8D1D8B2E1B2401A10BDED
:10042000034611F8012B00F8012B002AF9D11846D8
:10043000704730B505460020034600E05B1C934240
:1004400005D2EC5CC85C201A01D1002CF6D130BD7D
:1004500030B50B46014600202022012409E021FA94
:1004600002F59D4205D303FA02F5491B04FA02F591
:100470002844151EA2F10102F1DC30BD202A04DB64
:10048000203A00FA02F1002070479140C2F12003A7
:1004900020FA03F3194390407047202A04DB203AE6
:1004A00021FA02F00021704721FA02F3D040C2F194
:1004B000200291400843194670470000064C074D42
:1004C00006E0E06840F0010394E807009847103424
:1004D000AC42F6D3FFF76EFE68B4050888B4050891
:1004E00070B58C1810F8015B15F0070301D110F8F6
:1004F000013B2A1106D110F8012B03E010F8016B23
:1005000001F8016B5B1EF9D12B0705D40023521EA5
:100510000DD401F8013BFAE710F8013BCB1A921C0D
:1005200003E013F8015B01F8015B521EF9D5A1420B
:10053000D8D3002070BD10B5FFF754FE1CF02BF986
:10054000002010BD54494A6822F440324A604A688B
:1005500043681A434A600268526822F48072036852
:100560005A6002685368026943EA022203685A60CB
:100570000268526822F0407203685A60026852684A
:1005800083681A4303685A600268926822F4006222
:1005900003689A6002689268C3681A4303689A60A5
:1005A0003E4B826A9A4218D00268926822F07062CA
:1005B00003689A6002689268836A1A4303689A60C3
:1005C0000268926822F0405203689A60026892685A
:1005D000C36A1A4303689A600BE00268926822F0CB
:1005E000706203689A600268926822F04052036861
:1005F0009A600268926822F0020203689A600268B8
:100600009368826943EA420203689A60026AA2B16F
:100610000268526842F4006203685A6002685268D5
:1006200022F4604203685A6002685368426A521EAC
:1006300043EA423203685A6005E00268526822F4D5
:10064000006203685A600268D26A22F4700203688A
:10065000DA620268D36A828B521E43EA025203684E
:10066000DA620268926822F4007203689A60026893
:100670009368026B43EA422203689A6002689268B8
:1006800022F4806203689A6002689368426943EAD0
:10069000822203689A607047002301400100000F26
:1006A0007047000010B504462146024803F045F8A3
:1006B00010BD000054CE002010B5044803F050F8DF
:1006C000042801D0012010BD0020FCE754CE0020FA
:1006D00010B51048104908600020486000210E48FD
:1006E0008160C160016141618161002400F016F800
:1006F000012801D0012010BD074803F045F9044648
:1007000034B94FF40061044802F0CAFE00B101247C
:100710002046F0E7002C014054CE002008B501200F
:1007200000909DF8000008BD2DE9F04104460D46FB
:100730001646002733462A462146044803F066FA47
:1007400000B101273846BDE8F081000054CE0020FA
:100750000120014908707047380000202DE9F0475A
:100760000646894617464FF0010A394806F064FBF1
:10077000002802DA5046BDE8F08706F003000028A2
:1007800064D13A4649463046FFF7CEFF48BB0020C9
:100790003049087001F018F8044600BF2D48007871
:1007A00028B901F011F8001B29498842F6D32948DD
:1007B000007810B94FF0010A48E000202549087080
:1007C00001F002F8044605E0FFF776FF10B94FF09C
:1007D000000A05E000F0F8FF001B1D498842F3D332
:1007E00034E04FF0000828E0494609F101090122F0
:1007F0001948FFF799FF0546E5B90020154908702B
:1008000000F0E2FF044600BF1248007828B900F06B
:10081000DBFF001B0E498842F6D30E48007800B972
:100820000DE04FF400720C493046FFF7A6FD06F5C7
:10083000007600E003E008F10108B845D4D300BF1A
:10084000B84502D10DB94FF0000A00BF504692E7FB
:1008500000E1F5053800002098CF00202DE9F04197
:1008600004460D461646002733462A4621460448CC
:1008700003F06AFA00B101273846BDE8F0810000B4
:1008800054CE002001200149087070473700002035
:100890002DE9F0470746894690464FF0010A0020AF
:1008A00037490870374806F0C7FA002802DA504680
:1008B000BDE8F08707F0030000285ED142464946B4
:1008C0003846FFF7CBFF30BB00F07EFF044600BF89
:1008D0002B48007828B900F077FF001B294988428F
:1008E000F6D32748007810B94FF0010A45E0002000
:1008F0002349087000F068FF044605E0FFF7DCFEBE
:1009000010B94FF0000A05E000F05EFF001B1D4922
:100910008842F3D331E0002627E000201849087010
:10092000494609F1010901221748FFF797FF0546DB
:10093000CDB900F049FF044600BF1148007828B93E
:1009400000F042FF001B0F498842F6D30C480078A4
:1009500000B90CE04FF400720B493846FFF70DFD6B
:1009600007F5007700E002E0761C4645D5D300BFCE
:10097000464502D10DB94FF0000A504698E70000F5
:100980003700002000E1F50598CF002000BFFEE70A
:1009900010B50848406800F0020048B1054880687A
:1009A00040F0020003498860034800680EF0AAFD89
:1009B00010BD000000B00240E801002010B5024860
:1009C00000F0D4FB10BD0000D8CE002010B50248C6
:1009D00000F0CCFB10BD000038CF002001460878A5
:1009E00010381823B0FBF3F20848805CC865032A6E
:1009F00005D908686FF30900001D886503E00868E1
:100A00006FF309008865886D70470000F0B1050834
:100A1000014600208A6A8B69CBB932B1012A0DD018
:100A2000022A03D0032A10D10EE000BFCB6A03F0E4
:100A30008073B3F1807F00D1012007E0CB6AB3F16E
:100A4000C07F00D1012001E000E000BF34E08B69ED
:100A5000B3F5005F1AD132B1012A07D0022A03D0C0
:100A6000032A11D10AE000BF01200EE0CB6A03F097
:100A70008073B3F1807F00D1012006E0CB6AB3F12F
:100A8000C07F00D1012000E000BF15E032B1012A93
:100A900005D0022A04D0032A0CD103E000BF00BF16
:100AA000012008E0CB6A03F08073B3F1807F00D1AE
:100AB000012000E000BF00BF704730B50468246823
:100AC00024F4802405682C60046863608468402CEA
:100AD00004D10468A2600468E16003E00468A160D6
:100AE0000468E26030BD704710B54FF4806000F0DC
:100AF00041FD10BD704730B504460D460022294621
:100B0000204600F001F830BDF0B503460125002471
:100B10001148807B02281CDA00200F4EB67B0E4F56
:100B2000B8553846867B001D40F82630001F867B6E
:100B30000C3082553E46B07B461CBE73044604F121
:100B4000300008703A2048702F2088700020C8704C
:100B500000252846F0BD0000D464022030B50246CE
:100B6000002300240868012816D013686FF30E03D1
:100B7000D1E901052843CD6828430D6928434D6913
:100B800028438D692843CD6928430D6A28434D6A5F
:100B900028430343136019E0136823F4F843D1E9B1
:100BA000070528434D6A2843034354686FF30E0436
:100BB000D1E901052843CD6828430D6928434D69D3
:100BC00028438D692843044313605460002030BDDE
:100BD0000246506940EA4100506100207047F8B574
:100BE00006460C461546002000900027D4E9000177
:100BF0000843A168491E40EA4110E16840EA4120EB
:100C000000900098306100F0DFFD074609E0681CA5
:100C100038B125B100F0D8FDC01BA84201D903208E
:100C2000F8BDB06900F020000028F0D100BFF7E760
:100C300070B50346154600220024012D1FD09A6886
:100C400002F070420868401E4E68761E40EA0616A2
:100C50008868401E46EA0026C868401E46EA0036FC
:100C6000088A401E46EA0046888A401E46EA005628
:100C7000087E401E46EA006002439A6022E09A68BD
:100C800011480240C868401E0603888A401E46EA92
:100C900000500243DC6804F070440868401E4E684F
:100CA000761E40EA06168868401E46EA0026088A34
:100CB000401E46EA0046087E401E46EA00600443A5
:100CC0009A60DC60002070BDFF0F0FFF38B5024650
:100CD0000020009000BF92F83C00012801D10220C2
:100CE00038BD012082F83C0000BF0868092816D9E9
:100CF0001068C0680C780A3C04EB44050724AC403B
:100D0000A0431468E0600C780A3C04EB4404886853
:100D1000A0401468E46820431468E06013E01068A1
:100D200000690C7804EB44050724AC40A043146828
:100D300020610C7804EB44048868A040146824699E
:100D40002043146820614868072817D21068406B58
:100D50000C79641E04EB84051F24AC40A043146886
:100D60006063088880B20C79641E04EB8404A040A0
:100D70001468646B20431468606331E048680D2890
:100D800017D21068006B0C79E41F04EB84051F2454
:100D9000AC40A04314682063088880B20C79E41F3B
:100DA00004EB8404A0401468246B2043146820637F
:100DB00016E01068C06A0C790D3C04EB84051F2412
:100DC000AC40A0431468E062088880B20C790D3C06
:100DD00004EB8404A0401468E46A20431468E062D1
:100DE0001A4B1B4C1068A04206D10868122803D188
:100DF000586840F480005860154C1068A0421ED11D
:100E0000144C0868A04202D00868112817D158680D
:100E100040F4000058600F4C0868A0420FD10E4803
:100E200000680E4CB0FBF4F000EB80004000009036
:100E300002E00098401E009000980028F9D100BF01
:100E4000002082F83C0000BF00BF49E700230140BA
:100E500000200140120000104400002040420F001A
:100E600001460868C06C704770B5044600250CB98F
:100E7000012070BD1549A06A884200D000BF206CD7
:100E800030B90020606484F83C00204600F020F86F
:100E9000206C00F0100088B9206C20F4885040F0DD
:100EA000020020642046FFF74DFB00206064206CA8
:100EB00020F0020040F00100206400E0012500BFA6
:100EC000002084F83C0000BF2846D2E70100000F54
:100ED00010B586B00446142101A8FFF769FA264927
:100EE0002068884245D100BF002000902348006858
:100EF00040F48060214908600846006800F4806082
:100F0000009000BF00BF00BF002000901B481438B5
:100F1000006840F02000194914390860084600684C
:100F200000F02000009000BF00BF00BF0020009034
:100F30000846006840F0040008600846006800F0B9
:100F40000400009000BF00BF4FF4407001900320E8
:100F500002900020039001A9094800F019FB02202B
:100F60000190032002900020039001A9054800F0A1
:100F70000FFB06B010BD00000022014044380240C3
:100F8000001402400008024070B504460D460026D9
:100F90002068806800F4806078B12068806800F480
:100FA000807050B1206C40F02000206400BF002011
:100FB00084F83C0000BF012070BD00F005FC06462F
:100FC00012E0681C80B125B100F0FEFB801BA84236
:100FD0000AD9206C40F00400206400BF002084F88F
:100FE0003C0000BF0320E7E72068006800F0020033
:100FF0000228E6D16FF0120021680860206C40F4EE
:10100000007020642068806800F04050B8B9A06982
:10101000A8B92068C06A00F4700020B12068806818
:1010200000F4806058B9206C20F480702064206C3B
:1010300000F4805018B9206C40F0010020640020BA
:10104000BAE7000008B501460020009000BF91F803
:101050003C00012801D1022008BD012081F83C009C
:1010600000BF0868806800F00100A0B908688068C7
:1010700040F001000B6898602E4800682E4BB0FBD2
:10108000F3F000EB4000009002E00098401E00905A
:1010900000980028F9D10868806800F00100002855
:1010A00045D0086C40F20163984340F480700864B6
:1010B0000868406800F4806028B1086C20F4005093
:1010C00040F480500864086C00F4805020B1486CF3
:1010D00020F00600486401E00020486400BF0020C2
:1010E00081F83C0000BF154A6FF022000B681860C1
:1010F000506800F01F0058B90868806800F0405040
:10110000A8B90868806840F080400B6898600EE0DD
:101110000B4B086898420AD10868806800F040507C
:1011200028B90868806840F080400B68986000200B
:1011300092E700004400002040420F0000230140DD
:1011400000200140014691F83500022803D080209C
:10115000486501207047052081F83500086800685F
:1011600020F001000A6810600020F3E7F8B504469B
:10117000002000908C4800684FF41651B0FBF1F746
:10118000A56D2E6894F85C1008208840304098B116
:101190002068006800F0040070B12068006820F04A
:1011A00004002168086094F85C1008208840A8605A
:1011B000606D40F00100606594F85C10012088408B
:1011C000304068B12068406900F0800040B194F878
:1011D0005C1001208840A860606D40F002006065EE
:1011E00094F85C1004208840304068B120680068A2
:1011F00000F0020040B194F85C1004208840A86020
:10120000606D40F00400606594F85C101020884028
:10121000304078B32068006800F0080050B394F8BC
:101220005C1010208840A8602068006800F48020CE
:1012300080B12068006800F4002028B9206CC8B193
:101240002046216C884715E0A06C98B12046A16C1F
:1012500088470FE02068006800F4807028B9206893
:10126000006820F0080021680860206C10B120465A
:10127000216C884794F85C1020208840304000287A
:1012800065D02068006800F0100000285FD094F856
:101290005C1020208840A86094F83500052828D1EB
:1012A0002068006820F01600216808602068406906
:1012B00020F0800021684861206C08B9A06C28B13A
:1012C0002068006820F008002168086094F85C102D
:1012D0003F208840A86000BF002084F8340000BF91
:1012E000012084F83500206D10B12046216D88471B
:1012F000F8BD2068006800F4802080B12068006894
:1013000000F4002028B9606C10B12046616C884759
:101310001DE0E06BD8B12046E16B884717E02068FC
:10132000006800F4807068B92068006820F0100040
:101330002168086000BF002084F8340000BF01204D
:1013400084F83500E06B10B12046E16B8847606D92
:1013500038B3606D00F00100F0B1052084F835006D
:101360002068006820F001002168086000BF009834
:10137000401C0090B84200D905E02068006800F0E9
:1013800001000028F3D100BF00BF002084F8340022
:1013900000BF012084F83500E06C10B12046E16CFC
:1013A000884700BFA4E70000440000202DE9F04179
:1013B0000446002500F008FA074614B90120BDE8EC
:1013C000F081606A00B100BF00BF002084F83400E3
:1013D00000BF022084F835002068006820F001007A
:1013E000216808600AE000F0EFF9C01B052805D964
:1013F00020206065032084F83500E0E7206800685D
:1014000000F001000028EED1206805682148054061
:10141000D4E901010843E16808432169084361698F
:101420000843A1690843E1690843216A0843054369
:10143000606A042803D1D4E90B01084305432068FE
:1014400005602068456925F00705606A0543606A04
:1014500004280DD1A06A0543E06A48B12046FFF791
:10146000D7FA28B140206065012084F83500A6E74E
:10147000206845612046FFF7B1FA064694F85C10F3
:101480003F208840B06000206065012084F835006E
:10149000002094E73F8010F02DE9F04704460D4608
:1014A00016461F464FF00008D4F8589000BF94F835
:1014B0003400012802D10220BDE8F087012084F821
:1014C000340000BF94F8350001282BD1022084F8A5
:1014D0003500002060653B46324629462046FFF72E
:1014E000ECFA94F85C103F208840C9F808002068A6
:1014F000006840F01600216808602068406940F0EC
:10150000800021684861206C28B12068006840F0A4
:101510000800216808602068006840F00100216828
:10152000086006E000BF002084F8340000BF4FF0E0
:1015300002084046C0E7000070B5044600F044F9D8
:1015400006462546681C10B104480078054400BFD3
:1015500000F03AF9801BA842FAD370BD08040020BD
:10156000B0F5806F02D10121014A1175704700006A
:10157000E8CD002010B5044604480068204020B1A2
:10158000024804602046FFF7EBFF10BD143C014009
:10159000F8B502460B460025002400200021E6E0B5
:1015A000012606FA01F51E6806EA0504AC4273D16D
:1015B0005E68022E02D05E68122E13D1CF0802F1AF
:1015C000200656F827004E07F70E0F26BE40B04300
:1015D0004F07FF0E1E69BE403043CF0802F12006C0
:1015E00046F8270010684F000326BE40B0431E791E
:1015F00006F003064F00BE40304310605E68012EC7
:1016000008D05E68022E05D05E68112E02D05E689A
:10161000122E13D190684F000326BE40B0434F00F6
:10162000DE68BE4030439060506801268E40B04373
:101630001E79C6F300168E4030435060D0684F00CC
:101640000326BE40B0434F009E68BE403043D0608A
:101650005E6806F08056B6F1805FA8D100BF002614
:101660000096454E366846F48046434F3E603E46FF
:10167000366806F48046009600BF00BF3F4E8F08D4
:1016800056F827008E07370F0F26BE40B0433C4E5A
:10169000B24202D100262EE068E03A4EB24201D1B9
:1016A000012628E0384EB24201D1022623E0374E0F
:1016B000B24201D103261EE0354EB24201D10426CA
:1016C00019E0344EB24201D1052614E0324EB24246
:1016D00001D106260FE0314EB24201D107260AE0C1
:1016E0002F4EB24201D1082605E02E4EB24201D162
:1016F000092600E00A268F073F0FBE4030431F4EE9
:101700008F0846F82700284E3068A0435E6806F42C
:101710008036B6F5803F00D12043234E3060361D21
:101720003068A0435E6806F40036B6F5003F00D18D
:1017300020431D4E361D3060361D3068A0435E6864
:1017400006F48016B6F5801F00D12043164E0836E9
:101750003060361D3068A0435E6806F40016B6F5AA
:10176000001F00D12043104E0C363060491C102958
:10177000FFF416AFF8BD00004438024008380140BD
:10178000000002400004024000080240000C024039
:10179000001002400014024000180240001C0240E9
:1017A0000020024000240240003C01400246136930
:1017B0000B400BB1012000E0002070470AB18161AD
:1017C00001E00B0483617047014800687047000026
:1017D00000040020024692F83D0020281ED124205B
:1017E00082F83D001068006820F00100136818605E
:1017F0001068406A20F01000136858621068406A50
:101800000843136858621068006840F001001368CC
:101810001860202082F83D00002070470220FCE77D
:1018200010B502460B46002192F83D0020281DD13C
:10183000242082F83D001068006820F00100146840
:1018400020601068406A81B221F00F0141EA030074
:1018500081B2106841621068006840F001001468AD
:101860002060202082F83D00002010BD0220FCE70F
:1018700070B50446002600250CB9012070BD94F80F
:101880003D0028B9002084F83C00204600F03AFDD5
:10189000242084F83D002068006820F001002168C1
:1018A000086001F033FA05463948B5FBF0F62068C8
:1018B000466038496068884201D8701C07E04FF4E0
:1018C000967070434FF47A71B0FBF1F0401C2168C0
:1018D00008623049606888420ED860684000B5FBF5
:1018E000F0F0C0F30B00042801D204202DE0606862
:1018F0004000B5FBF0F028E0A06828B9606800EB74
:101900004000B5FBF0F008E0606800EBC00101EBBF
:101910000010B5FBF0F040F48040C0F30B0008B9B4
:10192000012012E0A06828B9606800EB4000B5FB18
:10193000F0F008E0606800EBC00101EB0010B5FBBF
:10194000F0F040F4804040F400402168C861D4E9E0
:101950000701084321680860D4E90310084321689F
:101960008860D4E9050108432168C86020680068E0
:1019700040F001002168086000202064202084F8E5
:101980003D000020206384F83E0000BF76E70000A1
:1019900040420F00A08601002DE9F8430446894625
:1019A00017469846089E0025FFF70EFF054694F857
:1019B0003D0020287CD119230122BE4920460095F4
:1019C00003F077F810B10220BDE8F88300BF94F867
:1019D0003C00012801D10220F6E7012084F83C00F8
:1019E00000BF2068006800F0010028B92068006886
:1019F00040F00100216808602068006820F4006061
:101A000021680860222084F83D00102084F83E0000
:101A1000002020646762A4F82A80A748E062608DF5
:101A200020852B4632464946204602F003FE80B10F
:101A3000206C042806D100BF002084F83C0000BFC1
:101A40000120C1E700BF002084F83C0000BF032054
:101A5000BAE7208D88B900BF002000902068406957
:101A6000009020688069009000BF00BF2068006877
:101A700040F400702168086046E0208D012818D1EC
:101A80002068006820F480602168086000BF0020A2
:101A9000009020684069009020688069009000BF35
:101AA00000BF2068006840F40070216808602BE0E7
:101AB000FEE0208D022816D12068006820F48060A6
:101AC000216808602068006840F4006021680860B0
:101AD00000BF002000902068406900902068806965
:101AE000009000BF10E02068006840F4806021682A
:101AF000086000BF002000902068406900902068C6
:101B00008069009000BF00BFC3E0208D032872D819
:101B1000208D01281AD12A463146204603F05DF86F
:101B200030B1206C202801D103204DE701204BE784
:101B300020680069C1B2626A501C60621170208D19
:101B4000401E2085608D401E6085A2E0208D022809
:101B50002AD13346002259492046009502F0A9FFB8
:101B600008B1032030E72068006840F40070216865
:101B7000086020680069C1B2626A501C606211701E
:101B8000208D401E2085608D401E60852068006984
:101B9000C1B2626A501C60621170208D401E2085A7
:101BA000608D401E608574E0334600224349204624
:101BB000009502F07EFF08B1032005E72068006869
:101BC00020F480602168086020680069C1B2626A00
:101BD000501C60621170208D401E2085608D401E5B
:101BE00060853346002235492046009502F061FFAA
:101BF00010B10320E8E620E02068006840F400709F
:101C00002168086020680069C1B2626A501C606285
:101C10001170208D401E2085608D401E60852068DB
:101C20000069C1B2626A501C60621170208D401E52
:101C30002085608D401E60852BE02A463146204677
:101C400002F0CBFF30B1206C202801D10320BBE68D
:101C50000120B9E620680069C1B2626A501C606266
:101C60001170208D401E2085608D401E608520688B
:101C70004069C0F3800060B120680069C1B2626A47
:101C8000501C60621170208D401E2085608D401EAA
:101C90006085208D00287FF438AF202084F83D0037
:101CA000002084F83E0000BF84F83C0000BF8BE6B3
:101CB000022089E6020010000000FFFF040001007E
:101CC0002DE9F8430446894616461F46DDF8208074
:101CD0000025FFF779FD054694F83D0020287DD1C9
:101CE0001923012259492046009502F0E2FE10B165
:101CF0000220BDE8F88300BF94F83C00012801D120
:101D00000220F6E7012084F83C0000BF206800684C
:101D100000F0010028B92068006840F00100216847
:101D200008602068006820F40060216808602120B5
:101D300084F83D00102084F83E0000202064666294
:101D400067854348E062608D20852B4642464946C0
:101D5000204602F007FD80B1206C042806D100BFA8
:101D6000002084F83C0000BF0120C2E700BF002033
:101D700084F83C0000BF0320BBE700BF00200090B8
:101D800020684069009020688069009000BF00BF13
:101D900046E02A464146204602F056FF60B1206CDC
:101DA000042807D12068006840F4007021680860AA
:101DB00001209EE703209CE7616A481C6062087866
:101DC00021680861608D401E6085208D401E208541
:101DD00020684069C0F3800078B100E034E0208DD5
:101DE00058B1616A481C6062087821680861608D9A
:101DF000401E6085208D401E20852A464146204693
:101E000002F02CFE60B1206C042807D12068006825
:101E100040F400702168086001206AE7032068E749
:101E2000208D0028B5D12068006840F4007021683A
:101E30000860202084F83D00002084F83E0000BFA8
:101E400084F83C0000BF54E7022052E70200100073
:101E50000000FFFF2DE9FC5F04460F4690469946BF
:101E6000DDE90CAB0E9E0025FFF7AEFC054694F8AD
:101E70003D0020287ED119230122BD49204600952E
:101E800002F017FE10B10220BDE8FC9F00BF94F8DD
:101E90003C00012801D10220F6E7012084F83C0033
:101EA00000BF2068006800F0010028B920680068C1
:101EB00040F00100216808602068006820F400609C
:101EC00021680860222084F83D00402084F83E000C
:101ED00000202064C4F824A0A4F82AB0A548E06239
:101EE000608D20854B46424639462046CDE9006547
:101EF00002F098FC80B1206C042806D100BF0020BD
:101F000084F83C0000BF0120BEE700BF002084F839
:101F10003C0000BF0320B7E7208D88B900BF002038
:101F2000019020684069019020688069019000BF9D
:101F300000BF2068006840F400702168086041E03C
:101F4000208D012819D12068006820F48060216864
:101F5000086000BF0020019020684069019020685F
:101F60008069019000BF00BF2068006840F40070E5
:101F7000216800E0FAE0086024E0208D022816D1F4
:101F80002068006820F4806021680860206800688C
:101F900040F400602168086000BF002001902068C4
:101FA0004069019020688069019000BF0AE000BF8D
:101FB00000200190206840690190206880690190AC
:101FC00000BF00BFC3E0208D032872D8208D0128F8
:101FD0001AD12A463146204602F0FFFD30B1206C6E
:101FE000202801D103204FE701204DE72068006938
:101FF000C1B2626A501C60621170208D401E208543
:10200000608D401E6085A2E0208D02282AD13346D3
:10201000002259492046009502F04BFD08B10320EB
:1020200032E72068006840F400702168086020688A
:102030000069C1B2626A501C60621170208D401E3E
:102040002085608D401E608520680069C1B2626A8B
:10205000501C60621170208D401E2085608D401ED6
:10206000608574E03346002243492046009502F023
:1020700020FD08B1032007E72068006820F4806095
:102080002168086020680069C1B2626A501C606201
:102090001170208D401E2085608D401E6085334666
:1020A000002235492046009502F003FD10B10320BF
:1020B000EAE620E02068006840F4007021680860CB
:1020C00020680069C1B2626A501C60621170208D84
:1020D000401E2085608D401E608520680069C1B269
:1020E000626A501C60621170208D401E2085608DD8
:1020F000401E60852BE02A463146204602F06DFDE9
:1021000030B1206C202801D10320BDE60120BBE6C0
:1021100020680069C1B2626A501C60621170208D33
:10212000401E2085608D401E608520684069C0F398
:10213000800060B120680069C1B2626A501C6062B0
:102140001170208D401E2085608D401E6085208D81
:1021500000287FF438AF202084F83D00002084F868
:102160003E0000BF84F83C0000BF8DE602208BE6F5
:10217000020010000000FFFF040001002DE9FC5FD9
:1021800004460F4690469946DDE90CAB0E9E0025AD
:10219000FFF71AFB054694F83D0020287ED119234D
:1021A000012256492046009502F083FC10B102201E
:1021B000BDE8FC9F00BF94F83C00012801D102203B
:1021C000F6E7012084F83C0000BF2068006800F0BA
:1021D000010028B92068006840F00100216808600B
:1021E0002068006820F4006021680860212084F8DD
:1021F0003D00402084F83E0000202064C4F824A064
:10220000A4F82AB03E48E062608D20854B464246E5
:1022100039462046CDE9006502F0B0FB80B1206C64
:10222000042806D100BF002084F83C0000BF012034
:10223000BEE700BF002084F83C0000BF0320B7E7E2
:1022400033E02A463146204602F0FEFC60B1206CA5
:10225000042807D12068006840F4007021680860F5
:102260000120A5E70320A3E7616A481C60620878A3
:1022700021680861208D401E2085608D401E60858C
:1022800020684069C0F3800078B1208D68B1616A30
:10229000481C606208782168086100E02CE0208D0D
:1022A000401E2085608D401E6085208D0028C8D18D
:1022B0002A463146204602F0D1FB60B1206C04284A
:1022C00007D12068006840F4007021680860012090
:1022D0006EE703206CE72068006840F40070216816
:1022E0000860202084F83D00002084F83E0000BFF4
:1022F00084F83C0000BF5BE7022059E702001000B1
:102300000000FFFF10B586B00446142101A8FEF7B7
:102310004FF81B492068884230D100BF0020009050
:102320001848006840F080001649086008460068B8
:1023300000F08000009000BF00BF4FF4C07001901B
:1023400012200290012003900320049004200590A5
:1023500001A90D48FFF71CF900BF002000900948B3
:102360001030006840F4000006491031086008464B
:10237000006800F40000009000BF00BF06B010BD70
:10238000005C004030380240001C024003480068F6
:102390000349097808440149086070470004002097
:1023A0000804002010B50D48006840F400700B4987
:1023B00008600846006840F48060086008460068CD
:1023C00040F480700860032000F014FA002000F050
:1023D00007F800F09FF9002010BD0000003C02400B
:1023E00070B504460E4800784FF47A71B1FBF0F0F6
:1023F0000C490968B1FBF0F5284601F00CFF08B163
:10240000012070BD102C07D200222146501E00F082
:10241000B2F90548046001E00120F2E70020F0E78E
:1024200008040020440000200404002070B5044685
:102430000E46154600BF94F8A000012801D10220E5
:1024400070BD012084F8A00000BF022084F8A10024
:1024500005EB850101EBC50204F1380101EB8200B7
:1024600034223146FDF789FF2A463146204603F0E3
:102470003FFF01202168486284F8A10000BF0020CE
:1024800084F8A00000BF00BFDAE7000070B5044682
:10249000002500260CB9012070BD94F8A10028B9D0
:1024A000002084F8A000204600F07EF8022084F886
:1024B000A1002068806920F0704021688861D4E91B
:1024C00001010843E16808432169084321688969DB
:1024D0000843216888612068806832490840216883
:1024E0008860A08A050420688068A16929430843A0
:1024F000216888602068C0682A4908402168C8604F
:10250000A08B05042068C068216A2943084321681C
:10251000C860206800692349084021680861A08CD0
:10252000050420680069A16A2943084321680861FD
:10253000206840691B49084021684861A08D050456
:1025400020684069216B294308432168486194F859
:102550003500050294F8360006042068C06A00F0D1
:102560007F402168C86246EA050094F834100843A9
:102570002168C96A08432168C8622068406B40F03E
:102580000600216848632068806940F001002168E6
:1025900088610020C4F8A400012084F8A100002074
:1025A0007AE7000000F800F010B586B00446142168
:1025B00001A8FDF7FDFE5149206888427ED100BF89
:1025C000002000904E48006840F080604C49086050
:1025D0000846006800F08060009000BF00BF00BFA8
:1025E0000020009046481438006840F40000444938
:1025F000143908600846006800F40000009000BF2D
:1026000000BF00BF002000900846006840F48070C2
:1026100008600846006800F48070009000BF00BFAA
:1026200000BF002000900846006840F020000860CD
:102630000846006800F02000009000BF00BF00BF07
:10264000002000900846006840F0800008600846BE
:10265000006800F08000009000BF00BF00BF0020B5
:1026600000900846006840F0400008600846006896
:1026700000F04000009000BF00BF40F2F760019002
:102680000220029000200390022004900E2005906A
:1026900001A91C48FEF77CFF4FF4806001900220E6
:1026A000029000200390022004900E20059001A9C2
:1026B0001548FEF76DFF4FF47E4000E01BE00190EF
:1026C0000220029000200390022004900E2005902A
:1026D00001A90E48FEF75CFF4FF40C600190022048
:1026E000029000200390022004900E20059001A982
:1026F0000748FEF74DFF06B010BD0000006801401E
:10270000443802400020024000140240001C0240F5
:102710000018024008B500BF002000900E48006875
:1027200040F480400C4908600846006800F480408E
:10273000009000BF00BF00BF00200090081F00688D
:1027400040F08050091F08600846006800F0805083
:10275000009000BF00BF08BD4438024000BF00F039
:102760001F02012191404209920002F1E022C2F8C9
:10277000001100BF70472DE9F05F80460D461646F8
:10278000002703F0C1FE074639462A46334601F0CA
:102790000700C0F1070ABAF1040F02D94FF0040A8A
:1027A00001E0C0F1070AD14600F1040ABAF1070FAF
:1027B00002D24FF0000A01E0A0F1030AD4464FF024
:1027C000010A0AFA09FAAAF1010A0AEA020A0AFA4D
:1027D0000CFA4FF0010B0BFA0CFBABF1010B0BEAFF
:1027E000030B4AEA0B042146404603F095FEBDE880
:1027F000F09F000000BF00F00702064B19684FF67B
:10280000FF031940044B0B4343EA0221014B1960BB
:1028100000BF70470CED00E00000FA0538B5002459
:1028200000BF002000901D48006840F080501B4908
:1028300008600846006800F08050009000BF00BFAC
:10284000012017490864FEF7BFFF044607E0FEF7C2
:10285000BBFF001BB0F57A7F01D9032038BD1148BA
:10286000406800F48030B0F5803FF0D101200C4981
:102870004864FEF7A9FF044607E0FEF7A5FF001B2A
:10288000B0F57A7F01D90320E8E70648406800F4F4
:102890000030B0F5003FF0D10020DFE740380240C3
:1028A00000000E4200700040F8B5044600250026E6
:1028B000207800F0010020B9207800F00200022802
:1028C00052D10020A8498866FEF77EFF054606E043
:1028D000FEF77AFF401B022801D90320F8BDA34868
:1028E0000068C0F3C0600028F2D1207800F0010039
:1028F00038B160688101207A41EA00709B498431D7
:102900000860207800F00200022819D1974884302E
:102910000068C0F3027660688101207B41EA0060B4
:1029200040EA067091498431086090488C30006814
:1029300020F01F00E169491E08438C498C31086072
:10294000012089498866FEF73FFF054606E0FEF74D
:102950003BFF401B022801D90320BFE783480068E2
:10296000C0F3C0600028F2D0207800F004000428F2
:1029700004D0207800F00800082863D100207A49AC
:102980000867FEF721FF054606E0FEF71DFF401B26
:10299000022801D90320A1E774480068C0F3407001
:1029A0000028F2D1207800F00400042819D16F48E3
:1029B00088300068C0F3027620698101207D41EAF9
:1029C000006040EA0670694988310860081D0068A7
:1029D00020F4F851206A401E41EA002063498C31FE
:1029E0000860207800F00800082817D15F48883078
:1029F0000068C0F303662069800140EA0661207E1A
:102A000041EA0070594988310860081D006820F4C7
:102A10004030616A084355498C31086001205249B1
:102A20000867FEF7D1FE054606E0FEF7CDFE401B27
:102A3000022801D9032051E74C480068C0F34070D8
:102A40000028F2D0207800F0200020287ED100BF9E
:102A50000020009045484030006840F080504349D5
:102A6000403108600846006800F08050009000BFC8
:102A700000BF3F48006840F480703D490860FEF7A1
:102A8000A3FE054606E0FEF79FFE401B022801D983
:102A9000032023E73648006800F480700028F2D055
:102AA00032487030006800F440764EB3208D00F458
:102AB0004070B04224D02D487030006820F4407639
:102AC00001202C490860002008602848703006600A
:102AD000006800F0010098B1FEF776FE054608E0B8
:102AE000FEF772FE401B41F28831884201D9032073
:102AF000F4E61E4870300068C0F340000028EFD0B4
:102B000000BF208D00F44070B0F5407F0CD1174815
:102B10000830006820F4F810174AA16A11400843F1
:102B200012490831086007E010480830006820F4B6
:102B3000F8100E49083108600C4870300068218D8B
:102B4000C1F30B0108430949703100E001E008605E
:102B500000BF207800F01000102803D194F82C005A
:102B6000064908600020B9E60000474200380240EC
:102B700000700040400E4742FFFCFF0FE01147424B
:102B800070B504460D460CB9012070BD5848006868
:102B900000F00F00A84209D255490D7008460068A0
:102BA00000F00F00A84201D00120EEE7207800F0ED
:102BB000020002281DD1207800F00400042805D16D
:102BC0004C48006840F4E0504A490860207800F022
:102BD0000800082805D14748006840F4604045498E
:102BE00008604448006820F0F000A16808434149AB
:102BF0000860207800F00100A8B36068012807D1C0
:102C00003C4808380068C0F34040B8B90120BCE730
:102C10006068022802D06068032807D13548083868
:102C20000068C0F3406048B90120AEE73148083879
:102C30000068C0F3400008B90120A6E72D480068ED
:102C400020F00300616808432A490860FEF7BCFDD4
:102C5000064609E0FEF7B8FD801B41F28831884244
:102C600002D9032091E707E02248006800F00C0039
:102C70006168B0EB810FEDD11D48006800F00F00D6
:102C8000A84209D91A490D700846006800F00F00E3
:102C9000A84201D0012078E7207800F00400042841
:102CA00007D11448006820F4E050E1680843114956
:102CB0000860207800F00800082808D10D48006856
:102CC00020F46040216940EAC1000A49086000F030
:102CD0003DF808490968C1F30311074A515CC8402F
:102CE000064908600020FFF77BFB00204DE700004D
:102CF000003C024008380240C4D4020844000020CE
:102D000001480068704700004400002000B5FFF74C
:102D1000F7FF04490968C1F38221034A515CC840A6
:102D200000BD000008380240D4D4020800B5FFF707
:102D3000E7FF04490968C1F34231034A515CC840C6
:102D400000BD000008380240D4D402082DE9F04745
:102D5000002400250026A1462548006800F00C004C
:102D600020B1042805D008283AD105E0DFF8849086
:102D700039E0DFF8849036E01D48001F006800F05D
:102D80003F041B48001F006800F4800078B11A4817
:102D90001749091F0968C1F38811A0FB017001469A
:102DA000224600233846FDF7B7FA05460EE01148E3
:102DB0000F49091F0968C1F38811A0FB0170014682
:102DC000224600233846FDF7A7FA05460848001FAB
:102DD0000068C0F30140401C4600B5FBF6F902E074
:102DE000DFF8109000BF00BF4846BDE8F087000044
:102DF000083802400024F40040787D01F8B504460C
:102E00000CB90120F8BD207800F00100002874D032
:102E1000F948006800F00C0004280DD0F64800685E
:102E200000F00C00082813D1F348001F006800F4DC
:102E30008000B0F5800F0BD1EF4808380068C0F370
:102E40004040002859D06068002856D10120D9E7B9
:102E500000BF6068B0F5803F08D1E74808380068D7
:102E600040F48030E449083908601EE06068B0F53D
:102E7000A02F0DD1E0480838006840F48020DE49DA
:102E8000083908600846006840F4803008600CE0AB
:102E9000D9480838006820F48030D74908390860DC
:102EA0000846006820F48020086000BF606890B188
:102EB000FEF78AFC054606E0FEF786FC401B642808
:102EC00001D903209EE7CC4808380068C0F3404091
:102ED0000028F1D011E0FEF777FC054606E0FEF78A
:102EE00073FC401B642801D903208BE7C2480838D3
:102EF0000068C0F340400028F1D1207800F00200C3
:102F000002285FD1BC48006800F00C0058B1BA48F4
:102F1000006800F00C0008281CD1B748001F0068AA
:102F200000F48000B0B9B44808380068C0F340002D
:102F300020B1E068012801D0012063E7AE480838DD
:102F4000006820F0F800216940EAC100AA49083968
:102F5000086037E0E06800B30120A8490860FEF788
:102F600033FC054606E0FEF72FFC401B022801D982
:102F7000032047E7A04808380068C0F34000002855
:102F8000F1D09D480838006820F0F800216940EA37
:102F9000C10099490839086014E000209749086089
:102FA000FEF712FC054606E0FEF70EFC401B022869
:102FB00001D9032026E7904808380068C0F3400094
:102FC0000028F1D1207800F0080008282CD1606991
:102FD000A8B101208A490860FEF7F6FB054606E025
:102FE000FEF7F2FB401B022801D903200AE78248C2
:102FF0006C300068C0F340000028F1D014E00020DD
:103000007F490860FEF7E0FB054606E0FEF7DCFBC3
:10301000401B022801D90320F4E677486C30006891
:10302000C0F340000028F1D1207800F0040004280B
:1030300070D1002670483830006800F0805090B998
:1030400000BF002000906C483830006840F080508D
:103050006949383108600846006800F080500090E7
:1030600000BF00BF01266748006800F48070B0B957
:103070006448006840F4807062490860FEF7A4FB71
:10308000054606E0FEF7A0FB401B022801D90320FD
:10309000B8E65C48006800F480700028F2D000BFF9
:1030A000A068012808D154486830006840F0010049
:1030B0005149683108601DE0A06805280DD14E48CF
:1030C0006830006840F004004B49683108600846E9
:1030D000006840F0010008600CE047486830006874
:1030E00020F001004449683108600846006820F07B
:1030F0000400086000BFA068A8B1FEF765FB0546A4
:1031000009E0FEF761FB401B41F28831884202D999
:10311000032077E626E0384868300068C0F34000B6
:103120000028EED013E0FEF74FFB054608E0FEF75F
:103130004BFB401B41F28831884201D9032061E6F4
:103140002D4868300068C0F340000028EFD1012E00
:1031500007D129483830006820F08050264938319E
:10316000086000BFA069B8B32348006800F00C00F5
:1031700008285ED0A069022846D100201F490866B1
:10318000FEF722FB054606E0FEF71EFB401B022869
:1031900001D9032036E6184808380068C0F34060BB
:1031A0000028F1D1D4E907010843616A40EA81119E
:1031B0000122A06AC2EB500041EA00412C20005DD0
:1031C00041EA00600C49091F086001200B490866AC
:1031D000FEF7FAFA054607E02DE0FEF7F5FA401B88
:1031E000022801D903200DE6034808380068C0F31F
:1031F00040600028F1D01EE008380240000047423D
:10320000800E47420070004000200C490866FEF71F
:10321000DBFA054606E0FEF7D7FA401B022801D983
:103220000320EFE506480068C0F340600028F2D1B3
:1032300001E00120E6E50020E4E50000000047424F
:103240000038024070B504460D460CB9012070BD2F
:1032500094F82C0028B9002084F82D00204600F0B6
:1032600011F8022084F82C00211D2068FDF776FC5F
:103270002946D4E90002FDF7DBFC012084F82C008C
:103280000020E4E710B586B0044600BF002000909F
:103290006248006840F00100604908600846006824
:1032A00000F00100009000BF00BF00BF00200090B0
:1032B0005A480838006840F0040058490839086046
:1032C0000846006800F00400009000BF00BF00BF87
:1032D000002000900846006840F020000860084682
:1032E000006800F02000009000BF00BF00BF002079
:1032F00000900846006840F08000086008460068BA
:1033000000F08000009000BF00BF00BF00200090D0
:103310000846006840F0400008600846006800F079
:103320004000009000BF00BF00BF00200090084692
:10333000006840F0100008600846006800F01000C7
:10334000009000BF00BF00BF00200090084600684A
:1033500040F0080008600846006800F0080000908F
:1033600000BF00BF00BF002000900846006840F08A
:10337000010008600846006800F00100009000BFEE
:1033800000BF4FF63F000190022002900020039002
:10339000032004900C20059001A92148FEF7F8F8BD
:1033A0000D20019002200290002003900320049041
:1033B0000C20059001A91B48FEF7EAF848F23710E7
:1033C00001900220029000200390032004900C2022
:1033D000059001A91448FEF7DBF84FF683700190C1
:1033E0000220029000200390032004900C200590FE
:1033F00001A90E48FEF7CCF84CF2037001900220B0
:10340000029000200390032004900C20059001A955
:103410000748FEF7BDF806B010BD0000383802407E
:103420000014024000080240001802400010024050
:10343000000C024070B504460D4694F82C0002289A
:1034400000D170BD022084F82C0029462068FDF7C9
:10345000BFFB012084F82C000020F2E770B5044681
:103460000D46164694F82C00022800D170BD0220AB
:1034700084F82C00324629462068FDF7B0FB286806
:10348000022803D1052084F82C0002E0012084F8F2
:103490002C000020EAE710B50446FDF701F910BD45
:1034A00070B58AB004460D460026032084F8340027
:1034B000606C032820D0B5F5805F04D1A06B40F08C
:1034C0008050A0631CE0B5F5006F07D1204603F0E3
:1034D00058FF0646A06B3043A06311E03DB920467B
:1034E00003F01AFF0646A06B3043A06308E0A06B10
:1034F00040F00060A06303E0A06B40F08050A06348
:10350000A06B40B140F2FF5021688863012084F82D
:1035100034000AB070BD60680490A0680590E0684F
:103520000690079560690890A069099007A807C8E8
:103530008DE80700206804A90EC903F033F80120C4
:1035400084F834000020E4E7704730B503460022D9
:10355000586E020E90090870C2F38300487002F0A2
:1035600003008870586EC0F30742CA70B3F8640055
:10357000C0F307220A7193F864204A71986E020E14
:103580004FF6FF7000EA0210C880986EC0F3074241
:10359000C88840EA1210C88002F00F000872682044
:1035A000C05AC0F30722D0094872C2F38010887253
:1035B000C2F34010C872C2F30010087300204873B1
:1035C000586C00283ED19007000D08616820C25C4D
:1035D000086940EA82000861D86E020E086940EA74
:1035E00092100861C2F3C200087502F00700487526
:1035F000D86EC0F3074250098875C2F38200C875BF
:103600009007400F08766C20C05AC0F30722087E4E
:1036100040EAD21008760869401C58650C7E586D47
:10362000A41C0125A540684358650C7A0120A040E0
:103630009865D3E91504640A6043D8654FF40074B3
:103640001C6630E0586C012821D16820C25C9006CD
:10365000800A0861D86E020E086940EA02200861FB
:10366000D86EC0F307420869104308616C20C05A45
:10367000C0F307220869441C4FF48060A4FB0004D7
:103680005865D8654FF400749C651C660BE040F2E9
:10369000FF501C68A063986B40F080509863012035
:1036A00083F8340030BDC2F3801001F8190F900682
:1036B000400E48706C20C25C487840EAD2104870D6
:1036C00002F07F008870186F020ED009C870C2F334
:1036D00041100871C2F3820048719007000F887191
:1036E000186FC0F30742887940EA92108871C2F3DC
:1036F0004010C8710020087202F00100487270206A
:10370000C05AC0F30722D0098872C2F38010C87271
:10371000C2F340100873C2F300104873C2F3810073
:10372000887302F00300C8737020C25C50080874EC
:103730000120487419390020B4E70246506C086033
:10374000906C4860D06C8860106DC860506D0861E6
:10375000906D4861D06D8861106EC861002070471F
:10376000F8B504460426002500200090694620464E
:1037700003F0B9FD054615B1A06B2843A06300987E
:10378000C0F343263046F8BD70B5044600252068D6
:10379000406BC0F30020002863D04FF48070216894
:1037A00088632068C06B40F23A3188432168C8635F
:1037B000206B00F0080048B3206B00F0020018B93D
:1037C000206B00F0200050B1206803F0B3F80546EC
:1037D0002DB1A06B2843A0632046FFF7B5FE40F251
:1037E000FF5021688863012084F83400206B00F0CA
:1037F000010018B9206B00F0020018B1204600F05B
:1038000099FABCE0204600F09AFAB8E0206B00F08C
:1038100080000028F5D0206B00F0200050B1206817
:1038200003F088F805462DB1A06B2843A06320461D
:10383000FFF78AFE206B00F001000028E1D1206B29
:1038400000F002000028DCD12068C06A20F00800E7
:103850002168C862012084F83400204600F06FFA25
:103860008DE02068406BC0F3803038B14FF4804069
:1038700021688863204603F0B9FD80E02068406B32
:10388000C0F3C03038B14FF400402168886320464F
:1038900003F016FD73E02068406B40F23A210840C7
:1038A00008B1012000E00020002868D02068406BAB
:1038B000C0F3400018B1A06B40F00200A063206884
:1038C000406BC0F3C00018B1A06B40F00800A063CB
:1038D0002068406BC0F3401018B1A06B40F020008E
:1038E000A0632068406BC0F3001018B1A06B40F0DB
:1038F0001000A0632068406BC0F3402018B1A06B9B
:1039000040F00800A06340F2FF70216888632068DF
:10391000C06B40F23A3188432168C863206B00F0E5
:10392000800010B3206C50B11548216C0865206CE4
:10393000FDF708FC10B1206C03F011FB1FE0E06BF9
:1039400050B11048E16B0865E06BFDF7FBFBB0B1CF
:10395000E06B03F0D5FA12E00020A063012084F8A8
:1039600034002046FFF797FD09E0206B00F00800C7
:1039700028B1012084F834002046FFF7E5FD70BD32
:103980005F6F0108016F010810B504460CB90120F2
:1039900010BD94F8340020B900202077204600F0B4
:1039A00051F8032084F83400204600F009F8002084
:1039B000A0632063012084F834000020E8E70000C1
:1039C00030B589B00446002500200390049005908E
:1039D000069007907620089006A807C88DE8070093
:1039E000206803A90EC902F0DDFD0020144908601B
:1039F000206802F0F1FD01201149A039C1F8A000B2
:103A00000220FDF799FD204603F0E3FB054645B192
:103A1000012084F83400A06B2843A063012009B082
:103A200030BD204603F057FB05463DB1012084F828
:103A30003400A06B2843A0630120F0E70020EEE7EC
:103A4000A080254210B586B00446142101A8FCF7D9
:103A5000AFFC6749206888427ED100BF00200090FB
:103A60006448006840F400606249086008460068E5
:103A700000F40060009000BF00BF00BF0020009075
:103A80005C481438006840F480005A4914390860D2
:103A90000846006800F48000009000BF00BF00BF2F
:103AA000002000900846006840F0040008600846C6
:103AB000006800F00400009000BF00BF00BF0020BD
:103AC00000900846006840F008000860084600685A
:103AD00000F00800009000BF00BF4FF4F8500190C4
:103AE0000220029000200390032004900C200590F7
:103AF00001A94148FDF74CFD0420019002200290ED
:103B000000200390032004900C20059001A93B485D
:103B1000FDF73EFD3A483B4908604FF000604860C1
:103B2000002138488160C1604FF4806101618900E3
:103B30004161890081612021C1610021016204216C
:103B40004162032181624FF40001C1628910016367
:103B5000FDF72CFC18B100E048E0FCF7CBFF00BFFC
:103B60002848E063846300BF254848302649086040
:103B70004FF0006048604021234881600021C1600F
:103B80004FF48061016189004161890081612021D8
:103B9000C1610021016204214162032181624FF46D
:103BA0000001C16289100163FDF700FC08B1FCF758
:103BB000A1FF00BF14482064846300BF00220621D7
:103BC0003120FEF7D8FD3120FEF7C8FD0122062185
:103BD0003B20FEF7D0FD3B20FEF7C0FD0122062171
:103BE0004520FEF7C8FD4520FEF7B8FD06B010BD24
:103BF000002C01404438024000080240000C024002
:103C000058640240D8CE002038CF00202DE9F04182
:103C100086B00446884616461D460027B8F1000FB8
:103C200007D1A06B40F00060A063012006B0BDE8A2
:103C3000F08194F83400012873D10020A063711939
:103C4000E06D814205D9A06B40F00070A0630120B7
:103C5000ECE7032084F8340000202168C862206863
:103C6000C06B40F495702168C8632F48E16BC8634E
:103C70002E48E16BC8640020E16B08656A02930876
:103C8000226802F180014246E06BFDF705FC01204D
:103C900027490860606C012800D076024FF0FF30A1
:103CA0000090680201909020029002200390002072
:103CB0000490012005906946206802F041FC4FF411
:103CC0000071206802F0E6FC074657B140F2FF5051
:103CD00021688863A06B3843A063012084F8340016
:103CE000A4E7012D07D9822020633146206802F025
:103CF0003DFD074606E0812020633146206802F042
:103D000052FD07465FB140F2FF5021688863A06B07
:103D10003843A063012084F8340087E701E00020E5
:103D200084E7022082E70000BB6E01085F6E010895
:103D30008C85254200B50246FCF70AFD00BD00B5A2
:103D40000246FCF79FFD00BD2DE9F04186B0044618
:103D5000884616461D460027B8F1000F07D1A06B14
:103D600040F00060A063012006B0BDE8F08194F847
:103D70003400012872D10020A0637119E06D8142E6
:103D800005D9A06B40F00070A0630120ECE7032090
:103D900084F8340000202168C8622068C06B40F0BD
:103DA0001A002168C8632E48216CC8632D48216C15
:103DB000C8640020216C0865606C012800D0760280
:103DC0004FF40071206802F065FC074657B140F2DD
:103DD000FF5021688863A06B3843A063012084F8FA
:103DE0003400C1E7012D07D9A020206331462068A7
:103DF00002F0BEFD074606E09020206331462068B1
:103E000002F0D3FD074657B140F2FF5021688863A6
:103E1000A06B3843A063012084F83400A4E701209C
:103E20001149086069028B08216801F1800241464E
:103E3000206CFDF731FB4FF0FF30009068020190DD
:103E40009020029000200390049001200590694684
:103E5000206802F075FB002086E7FFE7022083E779
:103E60004D6F01085F6E01088C85254210B5044630
:103E70000CB9012010BD606A00B900BF0021A16229
:103E800094F8510028B9002084F85000204600F032
:103E900033F8022084F851002068006820F04000C8
:103EA00021680860D4E901010843E16808432169F9
:103EB000084361690843218B01F400710843E169FB
:103EC0000843216A0843A16A084321680860042165
:103ED000A06901EA1040616A0843216848602068CF
:103EE000C06920F400602168C8610020606501207D
:103EF00084F851000020BDE710B586B004461421B7
:103F000001A8FCF755FA37492068884230D100BF34
:103F1000002000903448006840F4001032490860E6
:103F20000846006800F40010009000BF00BF00BF0A
:103F3000002000902C481438006840F040002A49C6
:103F4000143908600846006800F04000009000BF87
:103F500000BF4FF4E0400190022002900020039047
:103F6000032004900520059001A92048FDF710FBCF
:103F70001F492068884232D100BF002000901A48B3
:103F8000001F006840F480401749091F0860084678
:103F9000006800F48040009000BF00BF00BF002018
:103FA000009011481438006840F002000E4914399E
:103FB00008600846006800F00200009000BF00BFE3
:103FC0004FF46040019002200290002003900320F3
:103FD00004900520059001A90648FDF7D9FA06B01E
:103FE00010BD000000540140443802400018024057
:103FF00000380040000402402DE9FE4F04460D4603
:1040000016461F46DDF830804FF0000A002002906F
:1040100081464FF0010B019000BF94F85000012839
:1040200002D10220BDE8FE8F012084F8500000BFBD
:10403000FDF7CAFB814694F851A060680290BAF17E
:10404000010F0BD00298B0F5827F04D1A06810B99F
:10405000BAF1040F02D002200190D2E00DB106B1F6
:1040600017B901200190CCE094F85100012802D149
:10407000052084F8510000206065A663E787A787C4
:104080002563E786A786206460642068006800F0E6
:104090004000402805D02068006840F040002168BA
:1040A0000860E068B0F5006F43D1606810B1E08E41
:1040B000012806D128882168C860AD1CE08E401E0A
:1040C000E0862FE0BBF1000F10D0E08E70B12068C9
:1040D000806800F00200022808D128882168C860A2
:1040E000AD1CE08E401EE0864FF0000BE08F68B103
:1040F0002068806800F0010040B12068C06830800E
:10410000B61CE08F401EE0874FF0010B08F1010064
:1041100040B1FDF759FBA0EB0900404502D3032055
:1041200001906EE0E08E0028CCD1E08F0028C9D14C
:1041300042E0606810B1E08E012806D1287821683D
:1041400008736D1CE08E401EE0862FE0BBF1000F6F
:1041500010D0E08E70B12068806800F00200022864
:1041600008D115F8010B21680873E08E401EE08627
:104170004FF0000BE08F68B12068806800F001000C
:1041800040B12068C06806F8010BE08F401EE08750
:104190004FF0010B08F1010040B1FDF715FBA0EB5A
:1041A0000900404502D3032001902AE0E08E002858
:1041B000CCD1E08F0028C9D14346012202212046FC
:1041C000CDF8009003F0D2F910B10320019018E06F
:1041D0004A464146204603F0B5F920B1012001903E
:1041E000202060650DE0A06850B900BF002000905D
:1041F0002068C068009020688068009000BF00BF01
:1042000000BF012084F8510000BF002084F8500056
:1042100000BF019806E770B504462546681EB0F158
:10422000807F01D301200FE0681E4FF0E02148613C
:104230000F214FF0FF3002F06FF900204FF0E02126
:10424000886107200861002070BD70472DE9F047A4
:104250000446206805682068C668206847694FF0F2
:104260000008C14605F00F08B8F1000F0AD105F0AB
:10427000200038B106F0200020B1204603F0CCFA2F
:10428000BDE8F087B8F1000F6DD007F0010018B954
:1042900006F49070002866D005F0010030B106F4F5
:1042A000807018B1E06B40F00100E06305F004009D
:1042B00030B107F0010018B1E06B40F00200E0639C
:1042C00005F0020030B107F0010018B1E06B40F0DA
:1042D0000400E06305F0080030B107F0010018B1F8
:1042E000E06B40F00800E063E06B68B305F020008D
:1042F00028B106F0200010B1204603F08DFA2068A6
:104300004069C0F38019E06B00F0080010B9B9F102
:10431000000F22D0204603F05FFA2068406900F0C9
:104320004000B0B12068406920F040002168486139
:10433000606B50B11748616B0865606BFCF702FF5A
:1043400010B1606B016D88470CE02046FFF77DFFE0
:1043500008E02046FFF779FF04E02046FFF775FFED
:104360000020E0638CE705F0800030B106F08000AB
:1043700018B1204603F052FC82E705F0400030B14E
:1043800006F0400018B1204603F036FA78E700BF87
:1043900076E70000C577010810B504460CB9012086
:1043A00010BDA06900B100E000BF94F8390028B941
:1043B000002084F83800204600F028F8242084F8F3
:1043C00039002068C06820F400502168C860204689
:1043D00003F070FA2068006920F4904021680861B9
:1043E0002068406920F02A00216848612068C06880
:1043F00040F400502168C8600020E063202084F869
:10440000390084F83A000020CAE7000010B586B0F1
:104410000446142101A8FBF7CBFF3D4920688842E0
:1044200031D100BF002000903A48006840F01000F1
:10443000384908600846006800F01000009000BF8E
:1044400000BF00BF0020009032481438006840F0E0
:1044500001003049143908600846006800F0010086
:10446000009000BF00BF4FF4C06001900220029096
:1044700001200390032004900720059001A92648FD
:10448000FDF786F841E02549206888423DD100BF0C
:10449000002000901F48006840F020001D4908607F
:1044A0000846006800F02000009000BF00BF00BF79
:1044B0000020009017481438006840F004001549A7
:1044C000143908600846006800F00400009000BF3E
:1044D00000BFC02001900220029001200390032021
:1044E00004900820059001A90D48FDF751F803221A
:1044F0000F214720FEF73FF94720FEF72FF92068EC
:10450000C06840F020002168C86006B010BD0000FF
:1045100000100140443802400000024000140140F5
:104520000008024070472DE9F84304460D46164640
:104530001F464FF0000994F8390020285CD105B1DE
:1045400016B90120BDE8F88300BF94F838000128AF
:1045500001D10220F6E7012084F8380000BF0020D6
:10456000E063212084F83900FDF72EF98146A68406
:10457000E6842BE0E08C401EE084A068B0F5805F0C
:1045800016D14B46002280212046009703F07AFB8B
:1045900008B10320D6E7A846B8F80000C0F3080029
:1045A00021684860206908B9AD1C0FE06D1C0DE062
:1045B0004B46002280212046009703F063FB08B1A0
:1045C0000320BFE715F8010B21684860E08C002844
:1045D000D0D14B46002240212046009703F052FBE9
:1045E00008B10320AEE7202084F8390000BF002086
:1045F00084F8380000BFA5E70220A3E77047014612
:1046000008684069C0F3802088B16FF480600A6850
:1046100050610420086400200863202081F83D00D8
:1046200000BF002081F83C0000BF0120704700203F
:10463000FCE700002DE9F84304460D4690461E466F
:10464000E76A2068006840F4806021680860042FF1
:1046500004D0012F02D017F5803F06D120680068F2
:1046600040F480702168086008E0206B112805D1B3
:104670002068006840F4807021680860434600228A
:104680004FF001112046009600F013FA10B10320FC
:10469000BDE8F8832069B0F5804F05D1E8B240F05D
:1046A00001002168086149E005F44070F02141EA09
:1046B000E01021680861334642462949204600F04F
:1046C00036FA30B1206C042801D10120E0E7032044
:1046D000DEE7E8B221680861334642462049891F77
:1046E000204600F024FA30B1206C042801D10120CA
:1046F000CEE70320CCE700BF00200090206840698F
:10470000009020688069009000BF00BF20680068AA
:1047100040F4807021680860434600224FF0011188
:104720002046009600F0C5F908B10320B0E705F473
:104730004070F12141EAE0102168086133464246A9
:104740000749891F204600F0F2F930B1206C042897
:1047500001D101209CE703209AE7002098E70000A0
:10476000080001002DE9F84304460D461746984617
:10477000E66A042E04D0012E02D016F5803F06D141
:104780002068006840F480702168086008E0206BB1
:10479000122805D12068006840F480702168086004
:1047A0003B4600224FF001112046CDF8008000F07A
:1047B00080F910B10320BDE8F8832069B0F5804F7F
:1047C00004D105F0FE002168086117E005F440708F
:1047D000F02141EAE0102168086143463A46104959
:1047E000204600F0A4F930B1206C042801D101204A
:1047F000E1E70320DFE7E8B22168086143463A4673
:104800000749891F204600F092F930B1206C042836
:1048100001D10120CFE70320CDE70020CBE7000046
:10482000080001002DE9F84304460F461546994655
:10483000DDE908862068006840F48060216808602F
:104840002068006840F480702168086043460022B8
:104850004FF001112046009600F02BF910B1032013
:10486000BDE8F88307F0FE00216808613346424640
:104870004149204600F05BF930B1206C042801D199
:104880000120EDE70320EBE700BF00200090206847
:104890004069009020688069009000BF00BF3246E8
:1048A0004146204600F0D0F960B1206C042807D1C1
:1048B0002068006840F40070216808600120CFE79C
:1048C0000320CDE7B9F1010F03D1E8B221680861F7
:1048D00019E0C5F3072021680861324641462046A9
:1048E00000F0B2F960B1206C042807D1206800689C
:1048F00040F40070216808600120B1E70320AFE7B1
:10490000E8B22168086132464146204600F09CF931
:1049100060B1206C042807D12068006840F4007062
:104920002168086001209BE7032099E72068006860
:1049300040F4807021680860434600224FF0011166
:104940002046009600F0B5F808B1032088E7F8B2D9
:1049500040F001002168086133464246064920467E
:1049600000F0E5F830B1206C042801D1012077E790
:10497000032075E7002073E7020001002DE9F843EA
:104980000446884615469946DDE9086720680068B0
:1049900040F4807021680860334600224FF0011116
:1049A0002046009700F085F810B10320BDE8F88399
:1049B00008F0FE00216808613B4632462649204641
:1049C00000F0B5F830B1206C042801D10120EDE7EA
:1049D0000320EBE700BF00200090206840690090B2
:1049E00020688069009000BF00BF3A4631462046EB
:1049F00000F02AF960B1206C042807D12068006813
:104A000040F40070216808600120CFE70320CDE763
:104A1000B9F1010F03D1E8B22168086119E0C5F3CB
:104A20000720216808613A463146204600F00CF91B
:104A300060B1206C042807D12068006840F4007041
:104A4000216808600120B1E70320AFE7E8B22168E0
:104A500008610020AAE700000200010070B50446CA
:104A60000D4616461DE02046FFF7C9FD08B101209E
:104A700070BD681CA8B125B1FCF7A6FE801BA8423A
:104A80000FD9206C40F020002064002020632020FB
:104A900084F83D0000BF002084F83C0000BF0320E4
:104AA000E6E720684069C0F380000028DBD00020E2
:104AB000DEE72DE9F04104460D4617461E46DDF8B7
:104AC000188017E0701CA8B12EB1FCF77DFEA0EB9A
:104AD0000800B0420ED900202063202084F83D0059
:104AE000002084F83E0000BF84F83C0000BF032093
:104AF000BDE8F081C5F3074001280AD1206840696C
:104B0000A9B20840A9B2884201D101200BE00020DF
:104B100009E020688069A9B20840A9B2884201D1A1
:104B2000012000E00020B842CCD00020E0E72DE9D1
:104B3000F04104460D4616461F4631E020684069A4
:104B4000C0F38020C0B12068006840F40070216884
:104B500008606FF4806021684861042020640020B0
:104B60002063202084F83D0000BF002084F83C0032
:104B700000BF0120BDE8F081701C88B126B1FCF7B0
:104B800023FEC01BB0420BD900202063202084F8F4
:104B90003D0000BF002084F83C0000BF0320E9E78F
:104BA000C5F3074001280AD120684069A9B208402E
:104BB000A9B2884201D101200BE0002009E0206861
:104BC0008069A9B20840A9B2884201D1012000E061
:104BD00000200028B2D00020CCE770B504460D4676
:104BE000164629E020684069C0F3001080B16FF0DC
:104BF000100021684861002020642063202084F890
:104C00003D0000BF002084F83C0000BF012070BDC3
:104C100025B1FCF7D9FD801BA8420DD9206C40F0CE
:104C200020002064202084F83D0000BF002084F88C
:104C30003C0000BF0320EAE720684069C0F3801011
:104C40000028CFD00020E2E770B504460D46164696
:104C50001DE02046FFF7D3FC08B1012070BD681CA1
:104C6000A8B125B1FCF7B0FD801BA8420FD9206C7C
:104C700040F02000206400202063202084F83D00C4
:104C800000BF002084F83C0000BF0320E6E7206856
:104C90004069C0F3C0100028DBD00020DEE7000030
:104CA00010B580210348FCF781FD08B9002010BD34
:104CB0000120FCE7000C02400120704710B50421E0
:104CC0000348FCF773FD08B9002010BD0120FCE784
:104CD000001C024010B501210448FCF767FD0128C3
:104CE00001D1002010BD0120FCE7000000000240BF
:104CF00000B587B0142102A8FBF75AFB00BF0020C3
:104D00000190FE48006840F00400FC490860084635
:104D1000006800F00400019000BF00BF00BF002049
:104D200001900846006840F00100086008460068ED
:104D300000F00100019000BF00BF00BF0020019003
:104D40000846006840F0020008600846006800F06D
:104D50000200019000BF00BF80200290012003905C
:104D600004900320059002A9E548FCF711FC3020CF
:104D7000029002A9E348FCF70BFC0120029002A973
:104D8000E148FCF705FC01228021DD48FCF716FD17
:104D9000022004F0C5F900228021D948FCF70EFD5D
:104DA000022004F0BDF901228021D548FCF706FD60
:104DB000142004F0B5F94FF4704002F0CFFF5520F5
:104DC00002F0E8FF4FF2010002F0C8FFAA2002F053
:104DD000E1FF4FF2020002F0C1FF522002F0DAFFC1
:104DE0004FF2030002F0BAFF082002F0D3FF4FF2A7
:104DF000040002F0B3FF012002F0CCFF4FF430407A
:104E000002F0ACFF0D2002F0C5FF4BF2010002F0F2
:104E1000A5FF0D2002F0BEFF4BF2020002F09EFF44
:104E20000D2002F0B7FF4FF4364002F097FF342018
:104E300002F0B0FF4BF2016002F090FF342002F06C
:104E4000A9FF4BF2026002F089FF342002F0A2FFBA
:104E50004FF4314002F082FF0D2002F09BFF4BF235
:104E6000011002F07BFF0D2002F094FF4BF20210C4
:104E700002F074FF0D2002F08DFF4FF4374002F076
:104E80006DFF342002F086FF4BF2017002F066FFE6
:104E9000342002F07FFF4BF2027002F05FFF3420FB
:104EA00002F078FF4FF4324002F058FF002002F089
:104EB00071FF4BF2012002F051FF002002F06AFF67
:104EC0004BF2022002F04AFF002002F063FF4FF491
:104ED000384002F043FF242002F05CFF4BF6010053
:104EE00002F03CFF242002F055FF4BF6020002F0D6
:104EF00035FF242002F04EFF4FF43F4002F02EFF1A
:104F0000012002F047FF4FF4334002F027FF0F204B
:104F100002F040FF4BF2013002F020FF0F2002F0C0
:104F200039FF4BF2023002F019FF0F2002F032FF7E
:104F30004FF4394002F012FF342002F02BFF4BF601
:104F4000011002F00BFF342002F024FF4BF6021098
:104F500002F004FF342002F01DFF4FF4354002F050
:104F6000FDFE082002F016FF4BF2015002F0F6FEA3
:104F7000082002F00FFF4BF2025002F0EFFE082073
:104F800002F008FF4FF4424002F0E8FE032002F076
:104F900001FF4FF43A4002F0E1FE242002F0FAFE55
:104FA0004BF6012002F0DAFE242002F0F3FE4BF66D
:104FB000022002F0D3FE242002F0ECFE4FF43C402D
:104FC00002F0CCFE002002F0E5FE4BF6014002F0BC
:104FD000C5FE782002F0DEFE4BF6024002F0BEFE77
:104FE000002002F0D7FE4FF43D4002F0B7FE002053
:104FF00002F0D0FE4BF6015002F0B0FE782002F035
:10500000C9FE4BF6025002F0A9FE002002F0C2FEDB
:105010004FF43E4002F0A2FE002002F0BBFE4BF631
:10502000016002F09BFE642002F0B4FE4FF4514098
:1050300002F094FE002002F0ADFE4DF2011002F0ED
:105040008DFE332002F0A6FE4DF2021002F086FE25
:10505000002002F09FFE4DF2031002F07FFE34208C
:1050600002F098FE4DF2041002F078FE002002F0EB
:1050700091FE4DF2051002F071FE3A2002F08AFE18
:105080004DF2061002F06AFE002002F083FE4DF29F
:10509000071002F063FE4A2002F07CFE4DF2081079
:1050A00002F05CFE002002F075FE4DF2091002F0E5
:1050B00055FE5C2002F06EFE4DF20A1002F04EFE2C
:1050C000002002F067FE4DF20B1002F047FE812037
:1050D00002F060FE4DF20C1002F040FE002002F0E3
:1050E00059FE4DF20D1002F039FEA62002F052FEDC
:1050F0004DF20E1002F032FE002007E03038024080
:1051000000000240000802400004024002F042FE9B
:105110004DF20F1002F022FEE52002F03BFE4DF2B0
:10512000101002F01BFE012002F034FE4DF21110AF
:1051300002F014FE132002F02DFE4DF2121002F0C8
:105140000DFE012002F026FE4DF2131002F006FEC5
:10515000542002F01FFE4DF2141002F0FFFD01205A
:1051600002F018FE4DF2151002F0F8FD822002F058
:1051700011FE4DF2161002F0F1FD012002F00AFEC0
:105180004DF2171002F0EAFDCA2002F003FE4DF2C4
:10519000181002F0E3FD022002F0FCFD4DF21910A0
:1051A00002F0DCFD002002F0F5FD4DF21A1002F0D5
:1051B000D5FD022002F0EEFD4DF21B1002F0CEFDF7
:1051C000012002F0E7FD4DF21C1002F0C7FD0220A5
:1051D00002F0E0FD4DF21D1002F0C0FD342002F09F
:1051E000D9FD4DF21E1002F0B9FD022002F0D2FDF1
:1051F0004DF21F1002F0B2FD672002F0CBFD4DF220
:10520000201002F0ABFD022002F0C4FD4DF221108F
:1052100002F0A4FD842002F0BDFD4DF2221002F048
:105220009DFD022002F0B6FD4DF2231002F096FD26
:10523000A42002F0AFFD4DF2241002F08FFD0220F9
:1052400002F0A8FD4DF2251002F088FDB72002F013
:10525000A1FD4DF2261002F081FD022002F09AFD20
:105260004DF2271002F07AFDCF2002F093FD4DF2AF
:10527000281002F073FD022002F08CFD4DF229107F
:1052800002F06CFDDE2002F085FD4DF22A1002F0E6
:1052900065FD022002F07EFD4DF22B1002F05EFD56
:1052A000F22002F077FD4DF22C1002F057FD0220A3
:1052B00002F070FD4DF22D1002F050FDFE2002F0C4
:1052C00069FD4DF22E1002F049FD032002F062FD4F
:1052D0004DF22F1002F042FD102002F05BFD4DF266
:1052E000301002F03BFD032002F054FD4DF231106E
:1052F00002F034FD332002F04DFD4DF2321002F089
:105300002DFD032002F046FD4DF2331002F026FD84
:105310006D2002F03FFD4FF4524002F01FFD0020CF
:1053200002F038FD4DF2012002F018FD332002F0AA
:1053300031FD4DF2022002F011FD002002F02AFDA5
:105340004DF2032002F00AFD342002F023FD4DF25D
:10535000042002F003FD002002F01CFD4DF20520A8
:1053600002F0FCFC3A2002F015FD4DF2062002F09E
:10537000F5FC002002F00EFD4DF2072002F0EEFCDD
:105380004A2002F007FD4DF2082002F0E7FC002061
:1053900002F000FD4DF2092002F0E0FC5C2002F07A
:1053A000F9FC4DF20A2002F0D9FC002002F0F2FCD8
:1053B0004DF20B2002F0D2FC812002F0EBFC4DF20A
:1053C0000C2002F0CBFC002002F0E4FC4DF20D209A
:1053D00002F0C4FCA62002F0DDFC4DF20E2002F02B
:1053E000BDFC002002F0D6FC4DF20F2002F0B6FC0E
:1053F000E52002F0CFFC4DF2102002F0AFFC0120BE
:1054000002F0C8FC4DF2112002F0A8FC132002F0BB
:10541000C1FC4DF2122002F0A1FC012002F0BAFC06
:105420004DF2132002F09AFC542002F0B3FC4DF22E
:10543000142002F093FC012002F0ACFC4DF2152088
:1054400002F08CFC822002F0A5FC4DF2162002F046
:1054500085FC012002F09EFC4DF2172002F07EFC3C
:10546000CA2002F097FC4DF2182002F077FC0220CF
:1054700002F090FC4DF2192002F070FC002002F0C6
:1054800089FC4DF21A2002F069FC022002F082FC35
:105490004DF21B2002F062FC012002F07BFC4DF279
:1054A0001C2002F05BFC022002F074FC4DF21D2077
:1054B00002F054FC342002F06DFC4DF21E2002F08C
:1054C0004DFC022002F066FC4DF21F2002F046FC6B
:1054D000672002F05FFC4DF2202002F03FFC02202A
:1054E00002F058FC4DF2212002F038FC842002F03A
:1054F00051FC4DF2222002F031FC022002F04AFC65
:105500004DF2232002F02AFCA42002F043FC4DF2CD
:10551000242002F023FC022002F03CFC4DF2252066
:1055200002F01CFCB72002F035FC4DF2262002F000
:1055300015FC022002F02EFC4DF2272002F00EFC9A
:10554000CF2002F027FC4DF2282002F007FC0220B9
:1055500002F020FC4DF2292002F000FCDE2002F0D7
:1055600019FC4DF22A2002F0F9FB022002F012FC95
:105570004DF22B2002F0F2FBF22002F00BFC4DF278
:105580002C2002F0EBFB022002F004FC4DF22D2057
:1055900002F0E4FBFE2002F0FDFB4DF22E2002F0B3
:1055A000DDFB032002F0F6FB4DF22F2002F0D6FBCC
:1055B000102002F0EFFB4DF2302002F0CFFB032071
:1055C00002F0E8FB4DF2312002F0C8FB332002F07C
:1055D000E1FB4DF2322002F0C1FB032002F0DAFBC6
:1055E0004DF2332002F0BAFB6D2002F0D3FB4FF4F2
:1055F000534002F0B3FB002002F0CCFB4DF201302F
:1056000002F0ACFB332002F0C5FB4DF2023002F099
:10561000A5FB002002F0BEFB4DF2033002F09EFB22
:10562000342002F0B7FB4DF2043002F097FB00206B
:1056300002F0B0FB4DF2053002F090FB3A2002F090
:10564000A9FB4DF2063002F089FB002002F0A2FB1C
:105650004DF2073002F082FB4A2002F09BFB4DF234
:10566000083002F07BFB002002F094FB4DF2093081
:1056700002F074FB5C2002F08DFB4DF20A3002F068
:105680006DFB002002F086FB4DF20B3002F066FB52
:10569000812002F07FFB4DF20C3002F05FFB002016
:1056A00002F078FB4DF20D3002F058FBA62002F01C
:1056B00071FB4DF20E3002F051FB002002F06AFB4C
:1056C0004DF20F3002F04AFBE52002F063FB4DF291
:1056D000103002F043FB012002F05CFB4DF2113070
:1056E00002F03CFB132002F055FB4DF2123002F0A9
:1056F00035FB012002F04EFB4DF2133002F02EFB81
:10570000542002F047FB4DF2143002F027FB012039
:1057100002F040FB4DF2153002F020FB822002F037
:1057200039FB4DF2163002F019FB012002F032FB7A
:105730004DF2173002F012FBCA2002F02BFB4DF2A3
:10574000183002F00BFB022002F024FB4DF219305E
:1057500002F004FB002002F01DFB4DF21A3002F0B3
:10576000FDFA022002F016FB4DF21B3002F0F6FAB1
:10577000012002F00FFB4DF21C3002F0EFFA022084
:1057800002F008FB4DF21D3002F0E8FA342002F07E
:1057900001FB4DF21E3002F0E1FA022002F0FAFAAB
:1057A0004DF21F3002F0DAFA672002F0F3FA4DF200
:1057B000203002F0D3FA022002F0ECFA4DF2213050
:1057C00002F0CCFA842002F0E5FA4DF2223002F029
:1057D000C5FA022002F0DEFA4DF2233002F0BEFAE2
:1057E000A42002F0D7FA4DF2243002F0B7FA0220DA
:1057F00002F0D0FA4DF2253002F0B0FAB72002F0F4
:10580000C9FA4DF2263002F0A9FA022002F0C2FADB
:105810004DF2273002F0A2FACF2002F0BBFA4DF28F
:10582000283002F09BFA022002F0B4FA4DF229303F
:1058300002F094FADE2002F0ADFA4DF22A3002F0C6
:105840008DFA022002F0A6FA4DF22B3002F086FA11
:10585000F22002F09FFA4DF22C3002F07FFA022083
:1058600002F098FA4DF22D3002F078FAFE2002F0A4
:1058700091FA4DF22E3002F071FA032002F08AFA0A
:105880004DF22F3002F06AFA102002F083FA4DF246
:10589000303002F063FA032002F07CFA4DF231302E
:1058A00002F05CFA332002F075FA4DF2323002F069
:1058B00055FA032002F06EFA4DF2333002F04EFA40
:1058C0006D2002F067FA4FF4544002F047FA0020CE
:1058D00002F060FA4DF2014002F040FA332002F08B
:1058E00059FA4DF2024002F039FA002002F052FA61
:1058F0004DF2034002F032FA342002F04BFA4DF23E
:10590000044002F02BFA002002F044FA4DF2054068
:1059100002F024FA3A2002F03DFA4DF2064002F07D
:105920001DFA002002F036FA4DF2074002F016FA96
:105930004A2002F02FFA4DF2084002F00FFA002040
:1059400002F028FA4DF2094002F008FA5C2002F059
:1059500021FA4DF20A4002F001FA002002F01AFA90
:105960004DF20B4002F0FAF9812002F013FA4DF2E9
:105970000C4002F0F3F9002002F00CFA4DF20D4059
:1059800002F0ECF9A62002F005FA4DF20E4002F00A
:10599000E5F9002002F0FEF94DF20F4002F0DEF9C9
:1059A000E52002F0F7F94DF2104002F0D7F901209E
:1059B00002F0F0F94DF2114002F0D0F9132002F09C
:1059C000E9F94DF2124002F0C9F9012002F0E2F9C2
:1059D0004DF2134002F0C2F9542002F0DBF94DF20F
:1059E000144002F0BBF9012002F0D4F94DF2154049
:1059F00002F0B4F9822002F0CDF94DF2164002F027
:105A0000ADF9012002F0C6F94DF2174002F0A6F9F7
:105A1000CA2002F0BFF94DF2184002F09FF90220AF
:105A200002F0B8F94DF2194002F098F9002002F0A6
:105A3000B1F94DF21A4002F091F9022002F0AAF9F0
:105A40004DF21B4002F08AF9012002F0A3F94DF259
:105A50001C4002F083F9022002F09CF94DF21D4037
:105A600002F07CF9342002F095F94DF21E4002F06C
:105A700075F9022002F08EF94DF21F4002F06EF926
:105A8000672002F087F94DF2204002F067F902200A
:105A900002F080F94DF2214002F060F9842002F01A
:105AA00079F94DF2224002F059F9022002F072F920
:105AB0004DF2234002F052F9A42002F06BF94DF2AE
:105AC000244002F04BF9022002F064F94DF2254027
:105AD00002F044F9B72002F05DF94DF2264002F0E1
